:020000040800F2
:1000000000200020692D0008ED0E0008F10E000808
:1000100000000000000000000000000000000000E0
:10002000000000000000000000000000F50E0008C5
:100030000000000000000000F90E0008FD0E00089E
:10004000B92D0008B92D0008B92D0008B92D0008F8
:10005000B92D0008B92D0008B92D0008B92D0008E8
:1000600000000000B92D0008B92D0008B92D0008C6
:10007000B92D0008B92D000800000000B92D0008B6
:1000800000000000B92D0008000000000000000082
:10009000B92D000800000000B92D0008B92D000896
:1000A000B92D0008B92D0008B92D0008B92D000898
:1000B000B92D0008B92D0008000000000000000064
:1000C00008B5054B054803331B1A062B03D9044B0F
:1000D000002B00D0984708BD040000200400002039
:1000E000000000000648074908B5091A8910CB0F1F
:1000F0005918491003D0044B002B00D0984708BD75
:1001000004000020040000200000000010B5074C8F
:100110002378002B09D1FFF7D3FF054B002B02D02A
:10012000044800E000BF0123237010BD040000203C
:1001300000000000082E000808B5094B002B03D072
:100140000848094900E000BF08480368002B02D1B5
:10015000FFF7C8FF08BD064B002BF9D09847F7E71B
:1001600000000000082E0008080000200400002005
:1001700000000000002243088B4274D303098B4225
:100180005FD3030A8B4244D3030B8B4228D3030C67
:100190008B420DD3FF22090212BA030C8B4202D309
:1001A0001212090265D0030B8B4219D300E0090A31
:1001B000C30B8B4201D3CB03C01A5241830B8B423A
:1001C00001D38B03C01A5241430B8B4201D34B0323
:1001D000C01A5241030B8B4201D30B03C01A524188
:1001E000C30A8B4201D3CB02C01A5241830A8B420D
:1001F00001D38B02C01A5241430A8B4201D34B02F6
:10020000C01A5241030A8B4201D30B02C01A524159
:10021000CDD2C3098B4201D3CB01C01A524183090D
:100220008B4201D38B01C01A524143098B4201D347
:100230004B01C01A524103098B4201D30B01C01A72
:100240005241C3088B4201D3CB00C01A52418308EC
:100250008B4201D38B00C01A524143088B4201D319
:100260004B00C01A5241411A00D201465241104679
:100270007047FFE701B5002000F00CF802BDC04652
:100280000029F7D003B5FFF775FF0EBC4243891A6A
:100290001847C0467047C046002B11D1002A0FD125
:1002A000002900D1002802D00021C943081C07B44E
:1002B000024802A14018029003BDC046D9FFFFFFCB
:1002C00003B4684601B5029800F022F8019B9E46EF
:1002D00002B00CBC7047C046F0B583B0161C1F1CA2
:1002E0000090019100F058F8041C0D1C221C2B1CDE
:1002F000301C391C00F026F8009A019B121A8B4121
:100300000899201C0A604B60291C03B0F0BDC04650
:10031000F0B5141C83B01D1C0090019100F034F95D
:10032000221C2B1C061C0F1C00F00CF8009A019BD1
:10033000121A8B410899301C0A604B60391C03B0BB
:10034000F0BDC046F0B54F46464605042D0C2C1CAA
:10035000C0B41704160C3F0C9946030C7C4375433C
:100360005F4373437D19260CAD199C46AF4203D9F8
:1003700080235B029846C4444B46514343432404C4
:100380002E0C240C2D0466442C1959188919201C94
:100390000CBC90469946F0BDF0B544465F465646C3
:1003A0004D46F0B41C1C85B0002900DAA9E00F1CF2
:1003B0000021061C8846101C191C002C00DA97E04E
:1003C000341C3D1C82468946B94273D870D04946D8
:1003D000504600F085F98346391C301C00F080F946
:1003E0005B46181A031C8346203B9C4600D59CE0C4
:1003F00000230022514600920193634699400191E7
:1004000051468140019B0091BB4200D983E000D15D
:100410007EE0009A019B341C3D1CA41A9D4163465A
:10042000002B00DA9AE00026002702960397013697
:100430009E400396012686400296002800D171E076
:100440000099019AD30799464B464E081E43570818
:10045000002301220CE0AF4201D1A6420AD8A41B1E
:10046000BD4124196D410138A4185D41002806D012
:10047000AF42F0D9013824196D410028F8D120226B
:10048000029E039F5B46524236196F4199185AD417
:10049000281CC8402C1C5B46DC40002968DB041C7F
:1004A0008C40231C59468840021CB61A9F4103E029
:1004B000B0428CD90026002741464B1E99410023AB
:1004C00000910193009A019B002554429D41331CE9
:1004D0006340181C3B1C6B40191C009B019CC018FE
:1004E000614105B03CBC90469946A246AB46F0BD82
:1004F0004346DB430C1C9846131C00215842A14183
:100500005EE7002746428F4101214942884652E773
:10051000B14200D87DE70026002702960397002805
:1005200000D08DE7029E039FC6E720215346091A9B
:10053000CB400022191C0023009201934B468340BC
:100540000B4301935CE75A4620239B1A2A1C9A40CE
:10055000201C131C5A46D04018439BE72026002736
:10056000331A0026029603970127DF40039761E7BD
:100570005B4620215D46C91A031CAC40CB40191CC8
:10058000231C0B438EE7C046F0B545464E46574602
:10059000E0B4041C82B00D1C914698468B4262D890
:1005A0005FD04146484600F09BF8291C061C201CE1
:1005B00000F096F82023311A5B428A46C81865D4A9
:1005C0004B4683401F1C4B468B401E1CAF4258D8E5
:1005D00055D0A41BBD41002800DA77E0002200239B
:1005E0000092019301328240019201238B400093DB
:1005F00000293CD0FB079846404672087B0802431E
:10060000012600270CE0AB4201D1A2420AD8A41A6D
:100610009D4124196D410139A4197D41002906D05D
:10062000AB42F0D9013924196D410029F8D12022BB
:100630000098019953465242001969419E183AD4D4
:100640002F1CF7405346DD40002E29DB3C1CB440F4
:10065000231C5446A7403A1C801A994100900191EE
:1006600005E082429DD90023002400930194009864
:10067000019902B01CBC90469946A246F0BDA34227
:10068000A7D90022002300920193B1E720224B4614
:10069000521AD3401A1C43468B401F1C174392E743
:1006A000534620245646E41A3B1CB540E3401C1C2C
:1006B0002B1C2343CDE7524620239B1A2A1C9A4029
:1006C000271C131C5246D7401F43BBE720230022A0
:1006D000581A0023009201930132C240019284E72C
:1006E00010B5002903D100F007F8203002E0081C03
:1006F00000F002F810BDC0461C2101231B049842E3
:1007000001D3000C10391B0A984201D3000A0839A2
:100710001B09984201D30009043902A2105C401859
:100720007047C046040302020101010100000000FD
:1007300000000000FEE7C04600B59BB02B4A1168E0
:100740002B4B0B40802109010B4313600A230D93AF
:10075000093B109310221192129301331693002338
:1007600017938023DB0218938023DB0319930DA8D2
:1007700001F0EEFB002803D01E489C21FFF7DAFFB2
:100780000F2308930C3B099300230A930B930C93BC
:1007900008A8012101F0BCFE002803D01548AA21B9
:1007A000FFF7C8FF232301930023039304938023BF
:1007B0009B02029301A801F0A9FF002803D00D4875
:1007C000B421FFF7B7FF01F07BFFFA218900FFF7A3
:1007D000D1FC02F069FA042002F082FA01204042C2
:1007E0000021002202F02EFA1BB000BD0070004074
:1007F000FFE7FFFF202E000808B501F047FBFFF7D9
:100800009BFF00F015F800F04FF800F0A5F800F09D
:10081000F5F800F017F900F029FA00F073F900F08C
:1008200097F900F089FA00F0E3FA00F001FBFEE727
:10083000F0B589B0194BDA6A01252A43DA62DA6A1F
:100840002A400192019ADA6A02210A43DA62DB6ADB
:100850000B400293029B124F124C381C211C0022A9
:1008600002F0EAF9F8267601A020C005311C00222A
:1008700002F0E2F903940495002405940694381CD0
:1008800003A902F00BF90396049505940694A020A1
:10089000C00503A902F002F909B0F0BD0010024042
:1008A000000400500110000008B51548154B036006
:1008B000154B4360002383600122C26003614361E2
:1008C0008361C361036200F03FFB002803D00F483F
:1008D0004221FFF72FFF0A48002100F099FB002872
:1008E00003D00A484921FFF725FF0548002100F001
:1008F000BBFB002803D005485021FFF71BFF08BDB4
:100900002000002000580040BB7C70002C2E000806
:1009100000B587B002680D4B9A4214D1C0231B0169
:10092000019312230293113B039302330493033385
:100930000593074801A902F0B1F8064A936B80219C
:10094000C9030B43936307B000BDC0460058004085
:10095000000400500010024000B587B01C481D4B39
:100960000360002343607F2282608032C2600361A3
:1009700043618361C36100F0D9FB002803D01648AE
:100980004321FFF7D7FE01A900230B704B708B703A
:10099000CB600B610E48012200F02AFC002803D036
:1009A0000D485221FFF7C6FE01236A4613705370AB
:1009B00093700023D37006486946012200F09EFC24
:1009C000002803D004485F21FFF7B4FE07B000BD44
:1009D0006C00002000280040382E00080268054BFB
:1009E0009A4205D1044A136D8021C9020B43136555
:1009F0007047C046002800400010024008B50E486D
:100A00000E4B036082235B00436000238360C3605E
:100A100003614361802292008261C3610362436289
:100A200083620733C36200F0DFFC002803D0044870
:100A30004621FFF77FFE08BDE8000020003001409E
:100A4000442E000808B50E480E4B036082235B005D
:100A5000436000238360C36003614361802292008E
:100A60008261C3610362436283620733C36200F041
:100A7000BBFC002803D004485C21FFF75BFE08BDE7
:100A80009000002000380040442E000800B587B0D8
:100A90000368184A934214D1174A536B80214901C5
:100AA0000B435363E0230193DE3B02930023039344
:100AB000032204920593A020C00501A901F0EEFFD6
:100AC00016E00E4A934213D10B4A936B8021C90161
:100AD0000B439363E0231B02019302230293002341
:100AE0000393032204920593054801A901F0D6FF60
:100AF00007B000BD00300140001002400038004047
:100B00000004005000B583B00E480F4B0360002373
:100B100043608360C36000F08DFD002803D00B4864
:100B20007821FFF707FE00230093019305486946EB
:100B300000F0BEFE002803D004487F21FFF7FAFD35
:100B400003B000BD7801002000100040502E0008C6
:100B500000B587B01548164B0360002343608360DF
:100B6000C360036100F066FD002803D011489021A6
:100B7000FFF7E0FD80235B0102930C4802A900F01F
:100B800007FE002803D00B489621FFF7D3FD002372
:100B9000009301930548694600F08AFE002803D0BF
:100BA00004489D21FFF7C6FD07B000BDE801002005
:100BB00000080140502E000803688022D2059342AD
:100BC00005D1104A916B01230B43936319E00E4A40
:100BD000934205D10B4A916B10230B43936310E0B2
:100BE0000A4A934205D1074A516B04230B435363CE
:100BF00007E0074A934204D1024A516B20230B437A
:100C0000536370470010024000100040000801408C
:100C10000014014000B587B003688022D2059342DA
:100C20000DD10B230193093B0293002203920492FE
:100C30000593A020C00501A901F030FF0FE0094A8B
:100C400093420CD1302301932E3B02930023039354
:100C5000049304330593044801A901F01FFF07B072
:100C600000BDC046001401400004005000B58BB028
:100C70002F488023DB050360002343608360C3604B
:100C8000036100F0D7FC002803D02A484221FFF777
:100C900051FD80235B010693254806A900F078FDED
:100CA000002803D023484821FFF744FD204800F0E6
:100CB000DDFC002803D01F484D21FFF73BFD00233A
:100CC000049305931A4804A900F0F2FD002803D00C
:100CD00018485421FFF72EFD602300930023019351
:100CE0000293039312486946002200F0D9FC0028C1
:100CF00003D010485D21FFF71DFD0D486946042211
:100D000000F0CEFC002803D00A486221FFF712FD54
:100D1000074869460C2200F0C3FC002803D00548B0
:100D20006721FFF707FD0248FFF774FF0BB000BD16
:100D3000B0010020502E000800B58BB029482A4B86
:100D40000360002343608360C360036100F072FCB2
:100D5000002803D02548AF21FFF7ECFC80235B017E
:100D60000693204806A900F013FD002803D01F4871
:100D7000B521FFF7DFFC1B4800F078FC002803D00A
:100D80001A48BA21FFF7D6FC0023049305931548AF
:100D900004A900F08DFD002803D01448C121FFF7FD
:100DA000C9FC6023009300230193029303930D4831
:100DB0006946002200F074FC002803D00B48CA21C9
:100DC000FFF7B8FC07486946042200F069FC0028D8
:100DD00003D00648CF21FFF7ADFC0248FFF71AFF0A
:100DE0000BB000BD4001002000140140502E00084F
:100DF00008B50C480C4B0360E1235B024360002301
:100E00008360C36003610C2242618361C36103623A
:100E1000436200F0EFFF002803D004484521FFF7AC
:100E200089FC08BD20020020003801405C2E00082B
:100E300008B50C480C4B0360E1235B0243600023C0
:100E40008360C36003610C2242618361C3610362FA
:100E5000436200F0CFFF002803D004485A21FFF777
:100E600069FC08BD90020020004400405C2E000890
:100E700000B587B00368184A934213D1174A536BE1
:100E80008021C9010B435363C0230193BE3B0293EE
:100E900000230393032204920593114801A901F052
:100EA000FDFD17E00F4A934214D10C4A936B802149
:100EB00089020B4393630C4B01930223029300239B
:100EC00003930333049301330593A020C00501A9C4
:100ED00001F0E4FD07B000BD003801400010024001
:100EE0000004005000440040048000007047C046E9
:100EF000FEE7C0467047C0467047C04608B500F0E0
:100F0000D5FF01F0FFFE08BD08B50E4B596B01225D
:100F10000A435A639A6B802149050A439A63052064
:100F200040420021002201F08DFE022040420021BB
:100F3000002201F087FE012040420021002201F042
:100F400081FE08BD0010024010B5002858D0041CD6
:100F50004123C35C002B04D100224033C254FFF76D
:100F6000D7FC24224123E2542268136801218B43D9
:100F700013602268234B61680B40136122689168FB
:100F8000214B0B409360E368012B06D1226880233C
:100F90001B02A1680B43936005E0226884231B02B7
:100FA000A1680B439360E368022B03D1236880227E
:100FB00012015A602268536814490B435360226837
:100FC000D168114B0B40D3602168226963691A43D1
:100FD000A3691B021343CB602268E369216A0B43B8
:100FE00013602268116801230B43136000236364BC
:100FF00020214122A15423630132A354002000E0A8
:10100000012010BDFFFFFFF0FF7FFFFF0080000207
:10101000F0B54123C35C202B20D12033C35C012BCE
:101020001ED0402401230355412524224255066841
:1010300032689A433260066837680A4A3A4032603A
:101040000268166831431160026811680B4313602F
:101050002023435500230355002002E0022000E036
:101060000220F0BDFFEFFFFFF0B54123C35C202B52
:101070001ED12033C35C012B1CD040240123035517
:10108000412524224255066832689A433260066838
:101090003768094A3A400902114331600268116811
:1010A0000B4313602023435500230355002002E027
:1010B000022000E00220F0BDFFF0FFFF38B5041C65
:1010C0000268D368A0218B43D36000F0F7FE051CB3
:1010D00006E000F0F3FE401BFA239B00984205D87F
:1010E0002368DB689B06F4D5002000E0032038BDB0
:1010F00038B50368DA68520614D4041C012252423F
:10110000DA6000F0DBFE051C06E000F0D7FE401BB5
:10111000FA239B00984207D82368DB685B06F4D566
:10112000002002E0002000E0032038BD38B5002890
:101130004ED0041C2123C35C002B04D10022203399
:10114000C254FFF74BFC02222123E2542368C83229
:101150005A622368773A5A62201CFFF7C9FF0028B9
:1011600007D02368FF225A62FB3A2123E254012070
:101170002FE022689168174B0B40936022689168BA
:10118000636825692B43A5692B430B439360236850
:10119000E2681A6122681169A3681B040B4313619A
:1011A0002268D36880218B43D3602268D36C7D3959
:1011B0008B43D3642268D16CE36965692B430B438D
:1011C000D3642368FF225A62FE3A2123E25400E0EE
:1011D000012038BDBFFF8FFF002302E001330A3832
:1011E000C0B20928FAD81B01DBB218437047C046C9
:1011F000F8B52023C35C012B79D00D1C041C012100
:101200002023C15401310133C154002A16D103688F
:101210009B685B0601D40023EB702878FFF7DCFFA6
:1012200006046878FFF7D8FF00020643A878FFF7A6
:10123000D3FF0643EB781B041E430FE003689B6853
:101240005B0601D40023EB702E7836046B781B020A
:101250001E43A8780643EB781B041E432368CA226A
:101260005A622368773A5A62201CFFF741FF071E33
:101270000AD02368FF225A62FB3A2123E25400225B
:10128000013BE254012733E023681A4806401E6000
:1012900022689168184B0B40936021688868EB685E
:1012A0002A69134303438B602268D36880218B43F0
:1012B000D36023689B689B060FD4201CFFF7FEFEBB
:1012C00000280AD02368FF225A62FB3A2123E25405
:1012D0000022013BE25401270AE02368FF225A6200
:1012E000FE3A2123E2540022013BE25400E00227AF
:1012F000381CF8BD7F7F7F00FFFFFBFF70B5202308
:10130000C35C012B6AD001242023C454013401336F
:10131000C454002A06D14B78DC0603D51024A3431D
:101320000A334B700D1C041C002A10D1C878FFF73B
:1013300053FF06046878FFF74FFF00020643A878C2
:10134000FFF74AFF06432B785B031E4309E0CE7884
:1013500036044B781B021E43887806430B785B03E8
:101360001E432368CA225A622368773A5A62201CB5
:10137000FFF7BEFE051E0AD02368FF225A62FB3A21
:101380002123E2540022013BE254012527E0236897
:10139000144806405E602268D36880218B43D36086
:1013A00023689B689B060FD4201CFFF787FE00284C
:1013B0000AD02368FF225A62FB3A2123E25400221A
:1013C000013BE25401250AE02368FF225A62FE3AFB
:1013D0002123E2540022013BE25400E00225281CB4
:1013E00070BDC0463FFFFF0038B500283CD0041C4C
:1013F0005123C35C002B04D100225033C254FFF7A9
:1014000045FB512102236354226813684020834323
:10141000136020686368A2681343E268134322697B
:1014200013436269134380229200A5692A40134343
:10143000E2691343226A1343A26A134303602268DA
:10144000638B04200340606A034353602368E26AAD
:101450001A612268D069054B0340D361002363659C
:1014600001336354002000E0012038BDFFF7FFFF87
:1014700003688022D205904207D0194A904206D0D4
:10148000184A904205D1012204E0012202E0012223
:1014900000E00022002A03D0702293434A681343DD
:1014A0008022D205904207D00D4A904206D00D4AC4
:1014B000904205D1012204E0012202E0012200E075
:1014C0000022002A03D0084A1340CA68134303606D
:1014D0008B68C3620B688362012343617047C04617
:1014E0000008014000140140FFFCFFFF30B5036A13
:1014F000012293430362036A446882697325AA4305
:101500000D682A430225AB438D682B4344608261FA
:101510004A684263036230BD30B5036A10229343C8
:101520000362036A45688469074A22400C68240202
:1015300022432024A3438C68240123434560826115
:101540004A688263036230BDFF8CFFFF30B5026AD8
:101550000A4B13400362046A4568C26973239A43C5
:101560000B681A43064B23408C68240223434560D2
:10157000C2614A68C263036230BDC046FFFEFFFF1E
:10158000FFFDFFFF70B5026A0A4B13400362066A53
:101590004568C369084A1A400B681C022243074B7E
:1015A00033408C68240323434560C2614A68026467
:1015B000036270BDFFEFFFFFFF8CFFFFFFDFFFFF48
:1015C00030B5046A036A0125AB4303628369EF35D2
:1015D000AB4312011A430A239C43214382610162F7
:1015E00030BDC04630B5036A1024A3430362856949
:1015F000036A054C2C4012032243A024A343090193
:1016000019438261016230BDFF0FFFFF83687022C2
:101610009343693A114319438160704730B5856837
:10162000034C2C401B021A4311432143816030BDFF
:10163000FF00FFFF38B5002814D0041C3523C35C1D
:10164000002B04D100223433C254FFF7B5FA3525FC
:1016500002236355211C01C9FFF70AFF01236355CB
:10166000002000E0012038BD7047C04638B5002892
:1016700014D0041C3523C35C002B04D10022343366
:10168000C254FFF7F1FF352502236355211C01C920
:10169000FFF7EEFE01236355002000E0012038BD76
:1016A00038B53423C35C012B6DD00D1C041C012103
:1016B0003423C15401310133C154042A1CD002D84F
:1016C000002A05D057E0082A2CD00C2A3ED052E040
:1016D0000068291CFFF70AFF2268916908230B4361
:1016E00093612268936904218B4393612268916915
:1016F000EB680B4393613EE00068291CFFF70CFF89
:1017000022689369802109010B43936122689169E2
:101710001E4B0B40936122689169EB681B020B43DF
:10172000936128E00068291CFFF710FF2268D16947
:1017300008230B43D3612268D36904218B43D3610F
:101740002268D169EB680B43D36114E00068291C5F
:10175000FFF718FF2268D369802109010B43D36189
:101760002268D169094B0B40D3612268D169EB68CB
:101770001B020B43D36101223523E2540022013BBB
:10178000E254002000E0022038BDC046FFFBFFFF0E
:1017900010B53422825C012A00D184E00B1C041CA9
:1017A0000121342281540131013281540168886859
:1017B0003E4A02408A601A68402A4FD00AD8102A4E
:1017C0005BD002D8002A53D065E0202A5AD0302AB4
:1017D0005DD060E0702A14D004D8502A2AD0602A44
:1017E00032D058E0802149018A4204D08021890109
:1017F0008A4212D04FE02268936807218B4393609E
:1018000049E099685A68DB682068FFF707FF22689B
:10181000916877230B4393603DE099685A68DB68D1
:101820002068FFF7FBFE226893688021C9010B4303
:10183000936030E05968DA682068FFF7C1FE2068DD
:101840005021FFF7E3FE26E05968DA682068FFF7C9
:10185000C9FE20686021FFF7D9FE1CE05968DA68EC
:101860002068FFF7ADFE20684021FFF7CFFE12E0B1
:1018700020680021FFF7CAFE0DE020681021FFF765
:10188000C5FE08E020682021FFF7C0FE03E02068C5
:101890003021FFF7BBFE01223523E2540022013B39
:1018A000E254002000E0022010BDC0468800FFFF87
:1018B000F0B53423C35C012B1ED03422012585549E
:1018C000352402230355066873687027BB43736091
:1018D000066873680F683B4373600668B3688027C7
:1018E000BB43B3600668B7684B683B43B3600555BC
:1018F00000238354002000E00220F0BDF8B5051C51
:1019000083680269134342691343C2691A43016839
:101910000868BA4B034013430B602A685168B84B00
:101920000B40E9680B435360AB692A68B5498A42AA
:1019300001D0296A0B439068B34901400B4393607F
:101940002B68B24A934214D1B14BDB6C0322134093
:10195000012B08D0002B04D0022B45D0032B04D040
:1019600005E0012447E0042445E0082443E0102476
:1019700041E0A84A934216D1A54BDB6C0C221340E0
:10198000042B0AD002D8002B05D00AE0082B2DD05A
:101990000C2B04D005E000242DE004242BE00824C7
:1019A00029E0102427E0974A934221D1984BDA6C22
:1019B000C0231B0113408022D20093420ED002D8D4
:1019C000002B09D00EE080221201934212D0C022D7
:1019D0001201934204D005E000240CE004240AE044
:1019E000082408E0102406E0022404E0022402E0B7
:1019F000102400E00224022000F062FF2E68814BD8
:101A00009E4240D1022C0FD002D8002C08D016E004
:101A1000042C10D0082C12D100248020000213E0E6
:101A200000F054FE00240FE0794B1B68DB0609D55B
:101A30000024794808E000F023FD002404E001249C
:101A4000002001E000247548002800D1D3E06A6836
:101A500053009B18834200D9C6E01303834200D28F
:101A6000C4E0070E060250080021801979410023C6
:101A7000FEF712FC6A4BC2186A4B9A4200D9B7E0D3
:101A80002B68D860B7E080231B02EA699A4258D1DC
:101A9000082C4BD8A400644B1B599F4640006B6830
:101AA0005B08C0186968FEF765FB80B200243FE060
:101AB00000F01CFE40006B685B08C0186968FEF708
:101AC00059FB80B2002433E0514B1B68DB060AD57A
:101AD0006B685808554B9C4660446968FEF74AFBA2
:101AE00080B2002424E06B685808514B9C46604447
:101AF0006968FEF73FFB80B2002419E000F0C0FCEB
:101B000040006B685B08C0186968FEF733FB80B261
:101B100000240DE06B68580880235B029C466044FB
:101B20006968FEF727FB80B2002401E00124002051
:101B30000F23021C9A430007400F10432B68D86004
:101B400059E0082C56D8A4003A4B1B599F4600F088
:101B5000BDFD69684B08C018FEF70CFB0004000CC3
:101B6000F060002447E000F0C1FD69684B08C01830
:101B7000FEF700FB0004000CF06000243BE0244B67
:101B80001B68DB060BD569684808234B9C466044FC
:101B9000FEF7F0FA0004000CF06000242BE0696806
:101BA00048081E4B9C466044FEF7E4FA0004000C13
:101BB000F06000241FE000F063FC69684B08C01867
:101BC000FEF7D8FA0004000CF060002413E0696806
:101BD000480880231B029C466044FEF7CBFA0004B1
:101BE000000CF060002406E0012404E0012402E07F
:101BF000012400E00124201CF8BDC046F369FFEF7A
:101C0000FFCFFFFF00480040FFF4FFFF0038014016
:101C1000001002400044004000093D000024F40090
:101C200000FDFFFFFFFC0F00682E000800127A0085
:101C30000048E8018C2E0008436ADB0706D50268DD
:101C400051682C4B0B40816A0B435360436A9B07DE
:101C500006D502685168284B0B40C16A0B4353609C
:101C6000436A5B0706D502685168244B0B40016B41
:101C70000B435360436A1B0706D502685168204B2B
:101C80000B40416B0B435360436ADB0606D5026889
:101C900091681C4B0B40816B0B439360436A9B061E
:101CA00006D502689168184B0B40C16B0B439360DB
:101CB000436A5B0612D502685168144B0B40016CF5
:101CC0000B43536080235B03026C9A4206D1026887
:101CD00051680F4B0B40416C0B435360436A1B062A
:101CE00006D501684A680B4B1340826C13434B6066
:101CF0007047C046FFFFFDFFFFFFFEFFFFFFFBFF3A
:101D0000FF7FFFFFFFEFFFFFFFDFFFFFFFFFEFFFA3
:101D1000FFFF9FFFFFFFF7FFF0B5474680B4061CAB
:101D20000C1C171C9846069D1DE06B1C1BD0002D3B
:101D300005D000F0C3F84346C01AA84213D9326850
:101D400011680F4B0B4013603268936801218B437D
:101D5000936020236922B3540132B35400224833E4
:101D6000F254032008E03368DB6923401B1B5A420E
:101D70005341BB42D9D0002004BC9046F0BDC046C0
:101D80005FFEFFFF30B583B0041C0023C36600F084
:101D900095F8051C23681B681B070AD5144B009394
:101DA000201C8021890300222B1CFFF7B5FF00288F
:101DB00018D123681B685B070AD50D4B0093201CC4
:101DC0008021C90300222B1CFFF7A6FF00280BD19E
:101DD00020236922A3540132A35400224833E25441
:101DE000002002E0032000E0032003B030BDC04625
:101DF000FFFFFF0110B500282FD0041C6923C35C2E
:101E0000002B04D100226833C254FFF731F824229A
:101E10006923E2542268136801218B431360636ACB
:101E2000002B02D0201CFFF707FF201CFFF766FDE8
:101E3000012813D022685168094B0B405360226877
:101E400093682A218B4393602268116801230B4316
:101E50001360201CFFF796FF00E0012010BDC04674
:101E6000FFB7FFFF10B5041C074B1868FA21890063
:101E7000FEF780F900F018FF01204042211C0022EB
:101E800000F0E0FE002010BD0000002008B5064A6A
:101E9000116840230B4313600020FFF7E3FFFFF7B7
:101EA00033F8002008BDC04600200240024A1368F3
:101EB000013313607047C04600030020014B1868CF
:101EC0007047C0460003002010B51D4BDB68F022B0
:101ED0001A4222D11A4B9B6BDB0005D5194B1A68AD
:101EE000C0235B0113400EE0154A936B8021490526
:101EF0000B439363134B1968C0235B010B40946B36
:101F0000114921409163C0225201934207D1C0235D
:101F10001B02984205D0002004E0002002E00020CF
:101F200000E00120094A136801218B430343136039
:101F300013680B40834201D0012000E0002010BD57
:101F40000010024000700040FFFFFFEF0020024041
:101F500070B582B0041C0368DB0761D5C84BDB6831
:101F60000C221340082B08D0C54BDB6813400C2B08
:101F70000BD1C34BDB68DB0307D5C14B1B689B034D
:101F80004ED56368002B4BD13FE26368802252023A
:101F9000934206D1BA4A1368802149020B43136069
:101FA0001EE0A022D20293420BD1B54B1A688021C9
:101FB000C9020A431A601A68802149020A431A605A
:101FC0000EE0AF4B1968AF4A0A401A6019688022C8
:101FD00052020A400192019A1968AB4A0A401A60FB
:101FE0006368002B0ED0FFF769FF051C05E0FFF7C3
:101FF00065FF401B642800D909E2A14B1B689B03C5
:10200000F5D50DE0FFF75AFF051C05E0FFF756FF79
:10201000401B642800D9FCE1994B1B689B03F5D455
:1020200023689B0752D5964BDB680C221340042B88
:1020300008D0934BDB6813400C2B14D1904BDB681A
:10204000DB0310D48E4B1B685B0703D5E368012BC1
:1020500000D0E0E18A494A688C4B134022691202A1
:1020600013434B6032E0E268002A1CD084490B68BD
:102070000920834313430B60FFF720FF051C05E095
:10208000FFF71CFF401B022800D9C6E17C4B1B68F0
:102090005B07F5D57A494A687C4B134022691202E6
:1020A00013434B6012E0764A136801218B4313609F
:1020B000FFF704FF051C05E0FFF700FF401B0228A7
:1020C00000D9ACE16E4B1B685B07F5D42368DB06D7
:1020D00000D488E06A4BDB680C221A424AD1684B74
:1020E0001B689B0503D5A369002B00D199E1206AE9
:1020F000634B5A68E0231B021340984213D9FFF741
:10210000E3FE002800D08EE15D494A68604B134031
:10211000226A13434B604B681B021B0AE2691206DA
:1021200013434B6012E056494A68594B1340184319
:1021300048604B681B021B0AE269120613434B609E
:10214000206AFFF7C1FE002800D06EE1236A5B0B16
:102150000133802212029A40131C494AD2681206A7
:10216000120F4C498A5CD3404B4A13600020FFF7A2
:1021700079FE38E0A369002B22D0414A1368802100
:1021800049000B431360FFF799FE051C05E0FFF7BC
:1021900095FE401B022800D949E1394B1B689B057D
:1021A000F5D537494A683A4B1340226A13434B60CE
:1021B0004B681B021B0AE269120613434B6012E0D4
:1021C0002F4A1168354B0B401360FFF777FE051C53
:1021D00005E0FFF773FE401B022800D929E1284BD8
:1021E0001B689B05F5D423681B0729D56369002B61
:1021F00013D0234A116D01230B431365FFF75EFED5
:10220000051C05E0FFF75AFE401B022800D912E129
:102210001B4B1B6D9B07F5D512E0194A136D01216D
:102220008B431365FFF74AFE051C05E0FFF746FEEA
:10223000401B022800D900E1114B1B6D9B07F5D410
:1022400023685B0700D490E00D4B9B6BDB0007D449
:102250000B4A936B802149050B439363012500E0F2
:1022600000250F4B1B68DB0526D40D4A136880211F
:1022700049000B431360FFF721FE061C18E0C0461F
:1022800000100240FFFFFEFFFFFFFBFFFFE0FFFF2C
:10229000FF1FFFFF342F000800000020FFFEFFFF9C
:1022A00000700040FFF70AFE801B642800D9C6E0DA
:1022B0006B4B1B68DB05F5D5A36880225200934267
:1022C00006D1684A136D802149000B43136524E051
:1022D000002B09D1634B196D634A0A401A65196DC9
:1022E000624A0A401A6518E0A022D20093420BD13C
:1022F0005C4B1A6D8021C9000A431A651A6D802152
:1023000049000A431A6508E0564B196D564A0A40BF
:102310001A65196D554A0A401A65A368002B0FD03B
:10232000FFF7CCFD061C06E0FFF7C8FD801B504BF5
:10233000984200D985E04B4B1B6D9B05F4D50DE011
:10234000FFF7BCFD061C05E0FFF7B8FD801B484BFE
:10235000984278D8434B1B6D9B05F5D4012D04D1D1
:10236000404A916B434B0B409363636A002B6CD0E4
:102370003C4AD2680C210A400C2A68D0022B30D18A
:10238000384A11683C4B0B401360FFF797FD051C62
:1023900004E0FFF793FD401B02285AD8314B1B681D
:1023A0009B01F6D42F49C868344B1840A36AE26AEF
:1023B0001343226B13430343CB600B688022520408
:1023C00013430B60FFF77AFD041C04E0FFF776FD72
:1023D000001B02283FD8234B1B689B01F6D5002029
:1023E0003CE0204A1168244B0B401360FFF766FD68
:1023F000041C04E0FFF762FD001B02282DD8194BD6
:102400001B689B01F6D4002028E0012026E0032071
:1024100024E0032022E0012020E003201EE003202E
:102420001CE001201AE0012018E0012016E0032042
:1024300014E0032012E0032010E003200EE003204C
:102440000CE003200AE0032008E0002006E0012061
:1024500004E0032002E0032000E0032002B070BD8E
:102460000070004000100240FFFEFFFFFFFBFFFF77
:1024700088130000FFFFFFEFFFFFFFFEFFFF02FFDB
:1024800008B51E4BD9680C230B40082B31D00C2B00
:1024900007D0042B23D1194B1B68DB062BD518481A
:1024A0002AE08B021B0F174AD05C0902890F013109
:1024B000124BDB68DB0304D5134B5843FDF75AFE80
:1024C0001AE00E4B1B68DB0604D50D4B5843FDF795
:1024D00051FE11E00D4B5843FDF74CFE0CE0074B4D
:1024E00058680004400F013080231B028340181CF1
:1024F00002E0054800E0054808BDC0460010024063
:1025000000093D004C2F000800127A000024F4005E
:1025100070B5644B1B68012213408B420AD2614A9A
:1025200013680124A3430B431360136823408B42B9
:1025300000D0A3E003689B0706D55B4AD368F0246C
:10254000A34384682343D3600D1C041C0368DB078A
:102550005FD54368022B04D1534A1268920313D407
:102560008EE0032B04D1504A126892010CD489E00A
:10257000012B04D14C4A1268520705D484E04A4A20
:102580001268920500D481E04749CA68032082435B
:102590001343CB60FFF792FC061C6368022B0DD13E
:1025A00005E0FFF78BFC801B404B984270D83E4BF8
:1025B000DB680C221340082BF3D12AE0032B0DD14A
:1025C00005E0FFF77BFC801B384B984262D8364B06
:1025D000DB680C2213400C2BF3D11AE0012B13D132
:1025E00005E0FFF76BFC801B304B984254D82E4B14
:1025F000DB680C221340042BF3D10AE0FFF75EFCEA
:10260000801B2A4B984249D8274BDB680C221A4280
:10261000F4D1244B1B6801221340AB4209D9214A53
:10262000136801218B432B43136013680B40AB42AB
:1026300036D123685B0706D51B4AD1681C4B0B407B
:10264000E1680B43D36023681B0707D51649CA68A6
:10265000184B13402269D2001343CB60FFF710FFE1
:10266000114BDB681B061B0F134AD35CD840134B7E
:1026700018600020FFF7F6FB002012E0012010E0B8
:1026800001200EE001200CE001200AE0012008E01A
:10269000032006E0032004E0032002E0032000E022
:1026A000012070BD0020024000100240881300008D
:1026B000FFF8FFFFFFC7FFFF342F000800000020D6
:1026C000014B18687047C0460000002008B5FFF7AE
:1026D000F7FF044BDB685B055B0F034AD35CD84014
:1026E00008BDC04600100240442F000808B5FFF79F
:1026F000E7FF044BDB689B045B0F034AD35CD840C5
:1027000008BDC04600100240442F000870B5041CEC
:1027100003689B0600D482E05F4B9B6BDB0007D411
:102720005D4A936B802149050B439363012500E0CB
:1027300000255A4B1B68DB0513D4584A13688021C7
:1027400049000B431360FFF7B9FB061C05E0FFF7D8
:10275000B5FB801B642800D995E0504B1B68DB0556
:10276000F5D54D4B1A68C0239B031A4061680B4096
:1027700093420AD0C0239B020A1C1A409A4204D1F9
:10278000454B1B689B0300D57FE0434B1A6DC0236C
:102790009B02134025D0C02292021140994220D0C2
:1027A00023689B061DD53C4B186D3D4A0240196DB0
:1027B00080263603314319651E6D3A49314019654B
:1027C0001A65C3050DD5FFF779FB061C05E0FFF779
:1027D00075FB801B344B984259D82F4B1B6D9B05C2
:1027E000F5D56268C0239B02111C1940994208D19B
:1027F000294801682D4B1940C0239B031A400A4306
:102800000260254A116DC0239B02606803400B43A0
:102810001365012D03D1916B254B0B409363236806
:10282000DB0706D51C4AD36C03218B43A1680B43FD
:10283000D36423689B0706D5174AD36C0C218B43BE
:10284000E1680B43D36423685B0706D5124AD16C59
:10285000184B0B4021690B43D36423681B0706D533
:102860000D4AD16C144B0B4061690B43D364236850
:102870001B060ED50849CA6C104B1340A2691343BE
:10288000CB64002006E0032004E0012002E00320E6
:1028900000E0002070BDC046001002400070004003
:1028A000FFFFFCFFFFFFF7FF88130000FFFFCFFFD4
:1028B000FFFFFFEFFFF3FFFFFFCFFFFFFFFFF3FF80
:1028C00008B5202800D9B1E080006C4B1B589F460A
:1028D0006B4B196D1A6DC0239B021340802252026C
:1028E000934202D18A0500D5A2E08022920293424F
:1028F00002D18A0700D59EE0C0229202934200D006
:102900009BE05F4B1B689B0300D498E05C4B1A680C
:10291000C0239B03134080229203934200D190E096
:10292000C0229203934204D080225203934204D1E6
:1029300001E05448A1E054489FE054489DE0504BCA
:10294000DB6C0322134002D1FFF7D0FE95E0022B8F
:1029500003D14B4A1268520775D4012B02D1FFF7FD
:102960008FFD8AE0032B70D1454B1B6D9B056ED408
:10297000002082E0424BDB6C0C22134002D1FFF7B7
:10298000A5FE7AE0082B03D13D4A1268520761D4B4
:10299000042B02D1FFF774FD6FE00C2B5CD1384B98
:1029A0001B6D9B055AD4002067E0354BDA6CC023C1
:1029B0001B01134002D1FFF789FE5EE08022120165
:1029C000934203D12E4A126852074AD48022D20081
:1029D000934202D1FFF754FD4FE0C022120193420F
:1029E00041D1274B1B6D9B053FD4002045E0244B74
:1029F000DA6CC0239B01134002D1FFF767FE3CE075
:102A000080229201934203D11D4A126852072FD4AB
:102A10008022520193422DD1FFF732FD2DE0184B59
:102A20009B6B5B0228D5FFF751FE26E0002024E0D7
:102A30008020000221E016481FE000201DE0002059
:102A40001BE0144819E0144817E0002015E080202E
:102A5000000212E0104810E000200EE0802000028A
:102A60000BE00D4809E0002007E08020000204E0B0
:102A7000094802E0002000E0002008BDB02E000858
:102A80000010024020A1070080841E0000093D00C4
:102A90008890000040420F000024F400F0B54F463B
:102AA0004646C0B483B00023ADE001249C402240E0
:102AB000914600D1A6E04D68022D01D0122D0ED115
:102AC000DD080835AE00375807251D40AD000F2240
:102AD000AA4097430A69AA40151C3D4335504D68EA
:102AE0006F1E012F03D9112D01D0122D13D185682E
:102AF0005E000327B740BD432F1CCD68B5403D4362
:102B000085604768A7434A68D506ED0F2C1C019ADB
:102B100094403C43446005685F000324A446BC40E5
:102B2000E44325402E1C65464A681540BD403543A8
:102B30000560C5682C408D68BD402C43C4604A6860
:102B4000D2005FD5354D6E6B012434436C639C0815
:102B5000A51CAD00324EAE5903271F40BD000F2704
:102B6000AF40BE43A027FF05B84215D02D4FB84255
:102B700010D02D4FB8420BD02C4FB84206D02C4F5E
:102B8000B84201D1052708E0062706E0032704E044
:102B9000022702E0012700E00027AF403D1C35433B
:102BA0000234A4001E4EA551224C25684A46D44347
:102BB0002E1C26404A68D20302D54A4615432E1CD5
:102BC0001C4D2E606D682E1C26404A68920302D56B
:102BD0004A4615432E1C174D6E60AD682E1C2640CC
:102BE0004A68D20202D54A4615432E1C114DAE60EA
:102BF000ED682C404A68920202D54A462A43141CCA
:102C00000C4AD46001330A680193141CDC4000D0E4
:102C10004BE703B00CBC90469946F0BD0010024053
:102C2000000001400004005000080050000C00505B
:102C3000001C005000040140002A01D0816100E026
:102C40008162704770B5002816DAC0B20F230340C6
:102C5000083B9B089B00124A944663445A6803242D
:102C60002040C000FC34251C8540AA438901214036
:102C700081400A435A6011E083080A4CC0339B002C
:102C80001A5903252840C000FC352E1C8640B2434B
:102C9000890129408140081C1043185170BDC0466D
:102CA00018ED00E000E100E001380A4B98420FD82F
:102CB000094A506009490B6A1B021B0AC020000622
:102CC00003430B620023936007331360002000E08E
:102CD00001207047FFFFFF0010E000E000ED00E082
:102CE000042805D1054A116804230B43136004E04E
:102CF000024A136804218B431360704710E000E020
:102D00007047C04608B5FFF7FBFF08BD104B1A68B7
:102D1000802149000A431A60D9680E4A0A40DA60E5
:102D200019680D4A0A401A609A6801218A439A601C
:102D300019680A4A0A401A60D968094A0A40DA60E2
:102D400000221A6180221205064B9A607047C04625
:102D5000001002400C40FF88F6FFF6FEFFFFFBFF6D
:102D6000FFFF02FF00ED00E00D488546002103E073
:102D70000C4B5B58435004310B480C4B42189A42A1
:102D8000F6D30B4A02E0002313600432094B9A4247
:102D9000F9D3FFF7BBFF00F011F8FDF72DFDFEE7BB
:102DA00000200020682F0008000000200400002000
:102DB0000400002004030020FEE700000E4B70B565
:102DC00000251E1C0D4CE41AA410A54204D0AB0033
:102DD000F35898470135F8E700F016F8084B00253E
:102DE0001E1C084CE41AA410A54204D0AB00F358F2
:102DF00098470135F8E770BD602F0008602F000884
:102E0000602F0008642F0008F8B5C046F8BC08BC65
:102E10009E467047F8B5C046F8BC08BC9E46704751
:102E20005372632F6D61696E2E6300005372632FBE
:102E30006932632E630000005372632F7274632E35
:102E4000630000005372632F7370692E63000000EB
:102E50005372632F74696D2E630000005372632FE9
:102E600075736172742E63009C1A0008B01A000812
:102E7000C81A00082C1B0008FC1A00082C1B0008AC
:102E80002C1B00082C1B0008141B00084E1B0008FC
:102E9000661B00087E1B0008F41B0008B61B000818
:102EA000F41B0008F41B0008F41B0008CE1B0008EC
:102EB0002C2A00083E290008742900082C2A000842
:102EC000AA2900082C2A00082C2A00082C2A00080D
:102ED000EE2900082C2A00082C2A00082C2A0008B9
:102EE0002C2A00082C2A00082C2A00082C2A00086A
:102EF0001E2A00082C2A00082C2A00082C2A000868
:102F00002C2A00082C2A00082C2A00082C2A000849
:102F10002C2A00082C2A00082C2A00082C2A000839
:102F20002C2A00082C2A00082C2A00082C2A000829
:102F3000D028000800000000000000000102030487
:102F40000607080900000000010203040304060844
:082F50000C10182030000000F5
:082F580040D4FF7F01000000DE
:042F6000390100082B
:042F64000D01000853
:042F680080841E0043
:0400000508002D6959
:00000001FF
